:100000000C947A000C9499000C9499000C9499002B
:100010000C9499000C9499000C9499000C949900FC
:100020000C9499000C9499000C9499000C949900EC
:100030000C9499000C9499000C9499000C949900DC
:100040000C9499000C9499000C9499000C949900CC
:100050000C9499000C9499000C9499000C949900BC
:100060000C9499000C9499000C9499000C949900AC
:100070000C9499000C9499000C9499000C9499009C
:100080000C9499000C9499000C9499000C9499008C
:100090000C9499000C9499000C9499000C9499007C
:1000A0000C9499000C9499000C9499000C9499006C
:1000B0000C9499000C9499000C9499000C9499005C
:1000C0000C9499000C9499000C9499000C9499004C
:1000D0000C9499000C9499000C9499000C9499003C
:1000E0000C9499000C9499000C9499000C9499002C
:1000F0000C94990011241FBECFEFCDBFDFE7DEBF08
:1001000012E4A0E0B0E4E2E9F9E000E00BBF02C0D5
:1001100007900D92A238B107D9F722E4A2E8B2E421
:1001200001C01D92A838B207E1F70E94B0000C94FC
:10013000C7040C94000085E08093B000E0E6F4E092
:100140009689987F968B96899460968B9689977FEF
:10015000968BE0E0F6E08283808386E080870895D6
:10016000CF93DF93CDB7DEB7C456D109CDBFDEBF85
:1001700081E896E080936808909369080E940601E0
:100180000E949B00E0E0F4E08081846080830E9414
:10019000170180E090E480938442909385428EE939
:1001A00091E40E94E30100E00E942F01182F8A30A1
:1001B000A1F08D3091F081E0800FE1E0F0E0EC0FF4
:1001C000FD1FE00FF11D1083853630F08CE392E4C3
:1001D0000E94E30100E001C0082F1D3029F7E1E093
:1001E000F0E0EC0FFD1FE00FF11D10828CED91E4AB
:1001F0009F938F930E94CF01CE0101960E943C01F4
:1002000090E00E947D010F900F90CDCF1092E605F7
:10021000E0E0FAE087E4818381E090E084AF95AF8D
:1002200084E190E086AB97AB85E080830895E0E2BF
:10023000F4E081E0818382E08283E0E6F8E0868179
:10024000806C868308959091640895FFFCCF80931D
:10025000620808950E94230180E090E00895CF9302
:10026000809164088823E4F7C09160088C2F0E9475
:1002700023018C2FCF9108950F931F93CF938C015F
:10028000C0E00CC084E6C89FB0011124625F7F4BC0
:10029000C8010E94C601892B29F0CF5FC43090F3BA
:1002A0008FEF01C08C2FCF911F910F9108958FEE8A
:1002B00091E49F938F930E94CF0181E192E49F93F9
:1002C0008F930E94CF01E0E0FAE014AE15AE84AD4A
:1002D00095AD9F938F930E94CF012FE788E391E024
:1002E000215080409040E1F700C000000F900F9037
:1002F0000F900F900F900F900895EFE0F7E2319775
:10030000F1F700C000008130B1F018F0823009F13F
:1003100032C081E0809365048EE392E40E94E301A1
:100320008AE090E00E9457018FE097E20197F1F791
:1003300000C00000089582E0809365048EE492E49A
:100340000E94E301EFE0F7E23197F1F700C000000F
:10035000089582E08093650481E692E40E94E301BF
:1003600080E090E00E9457018FE097E20197F1F75B
:1003700000C00000089580E792E40E94E301EFE0EE
:10038000F7E23197F1F700C000000895FB01DC01AE
:100390008D91019080190110D9F3990B0895CF9395
:1003A000DF93CDB7DEB7AE014B5F5F4FFA016191CE
:1003B0007191AF0180918442909185420E94130215
:1003C000DF91CF9108950F931F93CF93DF93E09127
:1003D0008442F0918542238121FF1BC08C01D0E033
:1003E000C0E0F80181918F01609184427091854253
:1003F000DB011896ED91FC911997882331F009954E
:10040000892B79F3DFEFCFEFECCF8AE00995892BC9
:1004100019F08FEF9FEF02C08D2F9C2FDF91CF91AE
:100420001F910F9108952F923F924F925F926F927A
:100430007F928F929F92AF92BF92CF92DF92EF9274
:10044000FF920F931F93CF93DF93CDB7DEB72B9718
:10045000CDBFDEBF6C017B018A01FC0116821782D1
:10046000838181FFCCC1CE0101963C01F6019381CD
:10047000F70193FD859193FF81917F01882309F412
:10048000BAC1853239F493FD859193FF81917F0143
:10049000853229F4B60190E00E942D04E7CF912C1B
:1004A000212C312CFFE1F315D8F08B3279F038F4A0
:1004B000803279F08332A1F4232D20611DC08D326A
:1004C00061F0803369F4232D216016C0832D826092
:1004D000382EE32DE4603E2E2AC0F32DF8601DC0B7
:1004E00037FC2DC020ED280F2A3040F08E32B9F4B1
:1004F00036FC81C1232D2064322E19C036FE06C081
:100500008AE0989E200D1124922E11C0EAE02E9EC2
:10051000200D1124222EF32DF0623F2E08C08C36C0
:1005200021F4832D8068382E02C0883641F4F7010B
:1005300093FD859193FF81917F018111B3CF982F16
:100540009F7D9554933028F40C5F1F4F9FE3998350
:100550000DC0833631F0833771F0833509F059C00F
:1005600021C0F801808189830E5F1F4F8824839406
:10057000912C530113C02801F2E04F0E511CF801D9
:10058000A080B18036FE03C0692D70E002C06FEF1D
:100590007FEFC5010E9422044C018201F32DFF77F9
:1005A0003F2E16C0280122E0420E511CF801A08007
:1005B000B18036FE03C0692D70E002C06FEF7FEF9F
:1005C000C5010E9417044C01F32DF0683F2E8201F3
:1005D00033FC1BC0822D90E088169906B0F4B6015A
:1005E00080E290E00E942D042A94F4CFF50137FCBC
:1005F000859137FE81915F01B60190E00E942D0444
:1006000021102A9421E0821A91088114910471F733
:10061000E8C0843611F0893641F5F80137FE07C08D
:1006200060817181828193810C5F1F4F08C060815E
:100630007181072E000C880B990B0E5F1F4FF32D55
:10064000FF763F2E97FF09C0909580957095619534
:100650007F4F8F4F9F4FF0683F2E2AE030E0A3017D
:100660000E946904882E861845C0853731F4232DF1
:100670002F7EB22E2AE030E025C0932D997FB92E2F
:100680008F36C1F018F4883579F0B5C0803719F08D
:10069000883721F0B0C0E92FE061BE2EB4FE0DC056
:1006A000FB2DF460BF2E09C034FE0AC0292F26603E
:1006B000B22E06C028E030E005C020E130E002C0E4
:1006C00020E132E0F801B7FE07C0608171818281CC
:1006D00093810C5F1F4F06C06081718180E090E0C4
:1006E0000E5F1F4FA3010E946904882E8618FB2D00
:1006F000FF773F2E36FE0DC0232D2E7FA22E8914AC
:1007000058F434FE0BC032FC09C0832D8E7EA82E17
:1007100005C0B82CA32C03C0B82C01C0B92CA4FE72
:100720000FC0FE01E80DF11D8081803321F49A2D68
:10073000997EA92E09C0A2FE06C0B394B39404C04A
:100740008A2D867809F0B394A3FC11C0A0FE06C0E0
:10075000B21488F4280C922C9B180EC0B21460F4CA
:10076000B60180E290E00E942D04B394F7CFB2145A
:1007700018F42B1802C0982C212CA4FE10C0B6012E
:1007800080E390E00E942D04A2FE17C0A1FC03C0EC
:1007900088E790E002C088E590E0B6010CC08A2DA1
:1007A000867859F0A1FE02C08BE201C080E2A7FC6E
:1007B0008DE2B60190E00E942D04891438F4B60150
:1007C00080E390E00E942D049A94F7CF8A94F3017D
:1007D000E80DF11D8081B60190E00E942D0481108A
:1007E000F5CF222009F442CEB60180E290E00E94CB
:1007F0002D042A94F6CFF6018681978102C08FEFEF
:100800009FEF2B96CDBFDEBFDF91CF911F910F9150
:10081000FF90EF90DF90CF90BF90AF909F908F9020
:100820007F906F905F904F903F902F900895FC01C4
:100830000590615070400110D8F7809590958E0F0B
:100840009F1F0895FC016150704001900110D8F77E
:10085000809590958E0F9F1F08950F931F93CF93B0
:10086000DF93FB01238121FD03C08FEF9FEF2CC09D
:1008700022FF16C0468157812481358142175307D4
:1008800044F4A081B1819D012F5F3F4F20833183CC
:100890008C93268137812F5F3F4F2683378314C087
:1008A0008B01EC01FB010084F185E02D0995892B7A
:1008B000E1F6D80116968D919C91179701961696A0
:1008C0008D939C931797CE01DF91CF911F910F913C
:1008D0000895FA01AA27283051F1203181F1E894D6
:1008E0006F936E7F6E5F7F4F8F4F9F4FAF4FB1E023
:1008F0003ED0B4E03CD0670F781F891F9A1FA11D1E
:10090000680F791F8A1F911DA11D6A0F711D811D1E
:10091000911DA11D20D009F468943F912AE0269FE3
:1009200011243019305D3193DEF6CF010895462F42
:100930004770405D4193B3E00FD0C9F7F6CF462F23
:100940004F70405D4A3318F0495D31FD405241938C
:1009500002D0A9F7EACFB4E0A69597958795779549
:100960006795BA95C9F700976105710508959B01D0
:10097000AC010A2E06945795479537952795BA9559
:10098000C9F7620F731F841F951FA01D0895F89467
:02099000FFCF97
:1009920000000002000000002A01000000003100F7
:1009A2000000000000000000000000000000000045
:1009B2000000000000000000000000000000000035
:1009C2000000000000000000000000000000000025
:1009D2000000000000000000000000000000000015
:1009E2000000000000000000000000000000000005
:1009F20000000000000000000000000000000000F5
:100A020000003200000000000000000000000000B2
:100A120000000000000000000000000000000000D4
:100A220000000000000000000000000000000000C4
:100A320000000000000000000000000000000000B4
:100A420000000000000000000000000000000000A4
:100A52000000000000000000000000000000000094
:100A620000000000000053544F500000000000003E
:100A72000000000000000000000000000000000074
:100A82000000000000000000000000000000000064
:100A92000000000000000000000000000000000054
:100AA2000000000000000000000000000000000044
:100AB2000000000000000000000000000000000034
:100AC2000000000000000000000000000000000024
:100AD2000000000000000000000000000000000014
:100AE2000000000000000000000000000000000004
:100AF20000000000000000000000000000000000F4
:100B020000000000000000000000000000000000E3
:100B120000000000000000000000000000000000D3
:100B22000000000000000000000000000000566508
:100B32006C6B6F6D6D656E2074696C206D656E797E
:100B42000D0A20466F72206D616E75656C207461AE
:100B5200737420696E6E20310D0A20466F72206117
:100B620075746F207461737420320D005265636571
:100B72006976656420636F6D6D616E643A2000561C
:100B8200656C6B6F6D6D656E2074696C206D616E46
:100B920075656C6C2073747972696E672F6E607202
:100BA2000056656C672068766F7220737465726B8D
:100BB2002076696674656E20736B616C2076E672CE
:100BC2006520692070726F73656E740A0D004D6145
:100BD2006E75656C6C2076616C6774200D004175D2
:100BE200746F70696C6F742076616C677420200D6D
:100BF2000056696674652073746F707065720D00BB
:100C0200756E6B6E6F776E20636F6D6D616E640DC6
:020C12000000E0
:00000001FF
